:020000040000FA
:1000000000020400000000009A030000DC0200006F
:1000100020030000FA0200003E0300009A030000E3
:100020009A0300009A030000920300009A03000064
:100030009A0300009A0300009A0300009A0300004C
:100040009A0300007E0300009A0300009A03000058
:100050009A0300009A0300009A0300009A0300002C
:100060009A0300009A0300009A0300009A0300001C
:100070009A0300009A030000960300009A03000010
:100080009A0300009A0300009A0300009A030000FC
:100090009A0300009A0300009A0300009A030000EC
:1000A0009A0300009A0300009A0300009A030000DC
:1000B0009A0300009A0300009A0300009A030000CC
:1000C0009A0300009A0300009A0300009A030000BC
:1000D0009A0300009A0300009A0300009A030000AC
:1000E0009A0300009A0300009A0300009A0300009C
:1000F0009A0300009A0300009A0300009A0300008C
:100100009A0300009A0300009A0300009A0300007B
:100110009A0300009A0300009A0300009A0300006B
:100120009A0300009A0300009A0300009A0300005B
:100130009A0300009A0300009A0300009A0300004B
:100140009A0300009A0300009A0300009A0300003B
:100150009A0300009A0300009A0300009A0300002B
:100160009A0300009A0300009A0300009A0300001B
:100170009A0300009A0300009A0300009A0300000B
:100180005C0300009A0300009A0300009A03000039
:100190009A0300009A0300009A0300009A030000EB
:1001A0009A0300009A0300009A0300009A030000DB
:1001B0009A0300009A0300009A0300009A030000CB
:1001C0009A0300009A0300009A0300009A030000BB
:1001D0009A0300009A0300009A0300009A030000AB
:1001E0009A0300009A0300009A0300009A0300009B
:1001F0009A0300009A0300009A0300009A0300008B
:10020000FFFFFF00FFFFFF009A030000DC02000079
:1002100020030000FA0200003E0300009A030000E1
:100220009A0300009A030000920300009A03000062
:100230009A0300009A0300009A0300009A0300004A
:100240009A0300007E0300009A0300009A03000056
:100250009A0300009A0300009A0300009A0300002A
:100260009A0300009A0300009A0300009A0300001A
:100270009A0300009A030000960300009A0300000E
:100280009A0300009A0300009A0300009A030000FA
:100290009A0300009A0300009A0300009A030000EA
:1002A0009A0300009A0300009A0300009A030000DA
:1002B0009A0300009A0300009A0300009A030000CA
:1002C0009A0300009A0300009A0300009A030000BA
:1002D0009A0300009A0300009A0300009A030000AA
:1002E0009A0300009A0300009A0300009A0300009A
:1002F0009A0300009A0300009A0300009A0300008A
:100300009A0300009A0300009A0300009A03000079
:100310009A0300009A0300009A0300009A03000069
:100320009A0300009A0300009A0300009A03000059
:100330009A0300009A0300009A0300009A03000049
:100340009A0300009A0300009A0300009A03000039
:100350009A0300009A0300009A0300009A03000029
:100360009A0300009A0300009A0300009A03000019
:100370009A0300009A0300009A0300009A03000009
:100380005C0300009A0300009A0300009A03000037
:100390009A0300009A0300009A0300009A030000E9
:1003A0009A0300009A0300009A0300009A030000D9
:1003B0009A0300009A0300009A0300009A030000C9
:1003C0009A0300009A0300009A0300009A030000B9
:1003D0009A0300009A0300009A0300009A030000A9
:1003E0009A0300009A0300009A0300009A03000099
:1003F0009A0300009A0300009A0300009A03000089
:100400000F0322000E7F24000E0188000000000070
:10041000000020000000E000020032000001200087
:100420002002880014000700EA0007000000E00036
:1004300003003A0020A5220001002000020037003E
:100440000000200001002000810F70000100320038
:1004500014000700000020000000E000020032004D
:1004600000000200000000009A2B020000000000C3
:100470000040DA000000FE004440A900A015200062
:100480000000E0000300320000002000A00188000E
:100490004440A800000006008A1F78008B1F7800E7
:1004A0000000060091018800800478000000EB0045
:1004B0001A003700E284440032A0B4009905BA0063
:1004C000E284440032A0B4009906BA00E2844400F9
:1004D00032A0B4000006EB00476FDE00FD07B2005B
:1004E000636CE10003003A00EBFF07000000EB0043
:1004F0000A003700606CE10004003A00005DEB0088
:100500008B05E900FDFF3E00040037006168E10053
:10051000010032000086EB000B00070019C7BA008B
:100520001905BA000E04E00003003A000A00E000DA
:10053000E0FF3A0000000600FE07B2009E018800BE
:100540008A047800F5FF3700395DBA008B05E900B1
:100550000C003200295DBA008B05E900080032006A
:100560000C00E00003003A00E284440032A0B40032
:10057000F5FF370019DDBA008B05E900FAFF3A00F4
:100580008904E800E184440032A0B40000000600C1
:1005900016280400000000001406040000000000FB
:1005A00040060400000000000C0B040000000000E6
:1005B00000000400000000003600F800809FBE002C
:1005C000829FBE00849FBE00869FBE008020A9003F
:1005D0000000EB00E42D0200000000004F03BE000D
:1005E0004F02BE004F01BE004F00BE003600F900B2
:1005F000004006003600F800809FBE00829FBE00CB
:10060000849FBE00869FBE0000EB2100800778001B
:1006100078004000000188008040A9001000200000
:10062000E42D0200000000004F03BE004F02BE0098
:100630004F01BE004F00BE003600F900004006002A
:100640003600F800809FBE00829FBE00849FBE00DF
:10065000869FBE008060A90020002000E42D0200DB
:10066000000000004F03BE004F02BE004F01BE005D
:100670004F00BE003600F900004006003600F800CA
:10068000809FBE00829FBE00849FBE00869FBE00EA
:100690008080A90030002000E42D0200000000004E
:1006A0004F03BE004F02BE004F01BE004F00BE0010
:1006B0003600F900004006003600F800809FBE00BA
:1006C000829FBE00849FBE00869FBE003400F8005B
:1006D00000002000A0018800761802000000000041
:1006E0003400F9004F03BE004F02BE004F01BE00B0
:1006F0004F00BE003600F90000400600809FBE009B
:1007000084E0A900A0F78000B1F7800061004000FC
:10071000E0804800A0F78800B1F788004F00BE00D5
:10072000004006008400A900004006008680A90061
:10073000004006000040DA000000FE00B82304007C
:1007400000000000CC25040000000000E0230400AD
:10075000000000009E230400000000000A00FA00D0
:1007600011002000B1BF9F00C0BF9F006A805700EA
:10077000DC0607004FB897000080FA000000060072
:100780000A00FA0051002000B1BF9F00C0BF9F00C7
:100790006A805700D50607005FB897000080FA000E
:1007A00000000600020078000000E00008003200AF
:1007B00080017800314278002322AB00FEFF3A002E
:1007C0000482FB00241188008301E900F9FF3A004C
:1007D00000000600000005006022B80006022000AC
:1007E0000000D0008180D2000482D2008582D20035
:1007F0000000A0000202520083825A000300310070
:100800000202420083824A000000A1000603E900C0
:10081000F3FF3A0000000600800178000200370074
:10082000B15978000201E9000200E000FCFF3A0043
:100830000000060000027800808F50000C0031009C
:1008400082814000830F5000090031008200400087
:1008500002003700C36078000201E9000200E000F6
:10086000FCFF3A0000000600315A78000201E9005E
:100870000200E000FCFF3A00000006008001780062
:1008800002003700815978000201E9000200E0000F
:10089000FCFF3A000000060001DE210030000700E6
:1008A000800078000080EB000100E00004003500CB
:1008B00001DE2100A0002000020007004F80DE00C2
:1008C00000000600889FBE008A1F78000004BE005A
:1008D000C900900069009000808F50000600390028
:1008E0000900780088000700800078000080EB0095
:1008F0000100E0001700350008457800490090002D
:1009000008587800C00498001900780000B8A300C7
:1009100004003A0000A8A30008003200EA4F540087
:1009200006003A00090078004603070080007800BE
:100930000080EB000100E00006003A0000C020004B
:10094000190060000200320049009000E0049800A5
:100950000A80FB004F0578004F04BE00000006002F
:10096000889FBE008A9FBE008C1F7800800478009C
:10097000010478002F003700C80090006800900044
:10098000808F500004003900080078005E000700E6
:100990000000E0003A003500004020001800600030
:1009A0000A003200A100200009007800450007007D
:1009B000000678000C00E00004003200618514009D
:1009C0000A054600CFD5DE00040037000900780094
:1009D000300007000005BE000006EB004800900054
:1009E0006801900000015100CF91DE008A0F510094
:1009F0008B8F5900020031000205BE000006EB009B
:100A00000A01BE008900780083FF070048009000BB
:100A10000A004000400498000C00E000040032008E
:100A200008007800070307000000E00014003A0007
:100A30008A8444001904E000CFFF3A0000802000BF
:100A4000180060000600320008007800FD02070070
:100A5000800078000080EB000100E00009003A000F
:100A600001C02000988060000000EB00050032000B
:100A700048009000600498000000EB00010037007F
:100A80000080EB004F0678004F05BE004F04BE000B
:100A900000000600800078000000EB00610AB8004A
:100AA0006101B800040341000000E80064417900DE
:100AB0000204E000F9FF3A0001005300CF80DE009D
:100AC00000000600889FBE000001EB008201780054
:100AD0006103B8006112B8000404430085844B0030
:100AE00066427A00814F520001003A008801780086
:100AF0000201E8000404E000F5FF3A00030078007A
:100B00004F04BE0000000600889FBE008A1F7800C8
:100B100000047800C8009000680190000000EB001D
:100B2000828F50003D003900180078002200290013
:100B300002016000E20F5100070032000120200096
:100B40000000E0000100350001202400008C70004E
:100B50000080EB0031003700020026000200600038
:100B6000820F500009003A0038009000808F50003A
:100B70000600390008007800B20207008000780003
:100B80000080EB000100E00024003A001805780026
:100B900000C020000000650019003A00A804900081
:100BA0006002200008004000808F540014003A00CA
:100BB0000020200001002000E0FE07002004980033
:100BC0000000E00005003A0029049800490498005C
:100BD0008904E80039049800080037000A60A00082
:100BE0000A0C78004004980001202000808040001A
:100BF00031049800400C9800500C98003B0207000C
:100C0000280090005004980038009000600498007C
:100C100000002600180C70000000EB004F05780063
:100C20004F04BE0000000600889FBE00000478004C
:100C300001007800820478008801780009017800BA
:100C400011002000BA020700890F50000100320095
:100C50000004EB00080078004F04BE00000006000E
:100C60000000FA00E88157004FB9970001DE21002B
:100C700040612000CC0007000080FA000000060060
:100C8000889FBE00000478000203BE008104780043
:100C90000802780089017800120020000600BE00DA
:100CA00024050700890F5000010032000004EB000A
:100CB000080078004F04BE00000006006800FA003B
:100CC000889FBE008A9FBE008004780001047800DF
:100CD00082057800030578008400780000F92F0071
:100CE0000F00400011050700D98F9F00FB8F9F0068
:100CF0000000EB00A09F9F00E88F9F009A84FB00FC
:100D00000904FB008904EA00CF4CDE0050022000F9
:100D1000800F54000D003200E18F54000B003A00A8
:100D2000090178008A0078007F889700DF899700A2
:100D300003000100F08F9F000000E00095003200EA
:100D40002F9897000000E800A09F9F00090545002C
:100D500050022000800F5400040032000800E00020
:100D6000E6FF3A002F9897008B0037000000EB0059
:100D7000809F9F00F0979F00E0979F00D0979F0073
:100D8000C0979F00B0979F000700370041EE2100F9
:100D9000010050000000400081ED2100610078005A
:100DA000CF98970001007000C09F9F000A04780050
:100DB00008057800BA4478008900FB0040EE210065
:100DC000B90207000000E000F0FF3A00A1C2B30042
:100DD00081CF54000E003A008F8897000180E9000F
:100DE000808F9F0010007800B09F9F000000E000FF
:100DF00005003D000000EA00B09F9F004F9897005B
:100E00000020A000C09F9F000804E80010003700E9
:100E1000B09F9F00880078000000EB0005003700BD
:100E2000F3FF2700830F5000020032006A02B9006E
:100E30000400410001047800880078003101FB00C3
:100E40000203B100E90F5100F5FF3600B09F9F008B
:100E5000E0C2B300984F1000020032000080EB00A7
:100E600019003700A0C2B300D84F100007003A00A5
:100E70008F8897000180E900808F9F001000780024
:100E8000909F9F000804E800100037000000EB006E
:100E9000909F9F008800780005003700F3FF27002F
:100EA000830F5000020032006A02B90004004100C2
:100EB00001047800880078003101FB000203B100D2
:100EC000E90F5100F5FF3600909F9F00984478008D
:100ED0008900FB0000ED2100730207000000E00024
:100EE000020032000804E800010037008044EB00F3
:100EF000A97F9F0080C6B30080CF540006003A004F
:100F000098CF140010003A0066405000A07F9F0068
:100F10000804E8000C003700C0C6B30080CF5400BE
:100F200009003A0098CF140007003A0067404000DB
:100F3000D84F100002003A006E4050000100370008
:100F400010C7B300A07F9F001801FB00C3FB2F0058
:100F50008F81410001F92F008F80400020F92F0080
:100F60000F004000150007000000E00009003A00F3
:100F7000C1FB2F008F80400020F92F000F004000A0
:100F8000900307000000E000020035000805E800BB
:100F90005AFF37000080EB004F05BE004F04BE0033
:100FA0000080FA0000000600030278008201780049
:100FB000010178000164200040FF3700889FBE00D7
:100FC0008A1F7800000478000100780082407800D1
:100FD000E2C6B30082CF5000C000320015003C00D2
:100FE0006B41510082CF5000240032000A003C00C7
:100FF0007041510082CF5000F9003200654141003C
:1010000082CF50006800320050C2B30080CF500041
:1010100028013A002401370042C6B30082CF5000B5
:101020001B0032006541410082CF500021013A008F
:101030001700370032C7B30082CF5000E8003200FB
:1010400007003C006441510082CF5000560032003E
:101050000241E80082CF500016013A00D20037006A
:1010600052C7B30082CF50004F00320063414100AD
:1010700082CF50000F013A004B0037009080E9000A
:101080000108780028089000914078000701370097
:1010900008699000C4C6B300844F510007003A00AD
:1010A0001002780064015200020878001202BE00AB
:1010B0004FABDE00860378001100370014C7B30081
:1010C000844F510003003200A4C6B300844F510086
:1010D00006003A0010027800680152000208780009
:1010E0003202BE002203BE00050037001081E90075
:1010F0000208780012027800CFA2DE00612BB9004E
:10110000049CBE000694BE000868900082C6B3002E
:10111000824F50000D00320022C6B300824F5000B3
:1011200004003A000402FB00CFA2DE00612BB900EC
:101130000800370042C7B300824F5000030032005E
:1011400066414100824F500004003A00CFA2DE0009
:10115000612BB900049CBE000694BE003802BE009C
:101160002803BE0028089000D2C2B300E00F52004E
:10117000E08F5A00E00F5B00E08F5B000800350055
:10118000381190000218A30002003200B2C2B3006E
:10119000030037000208A3004C00320002C2B30073
:1011A000827178004700370008699000C4C6B30018
:1011B000844F510006003A0010027800640152008A
:1011C000020878001202BE006033B8001100370038
:1011D00014C7B300844F510003003200A4C6B3000B
:1011E000844F510006003A00100278006801520056
:1011F000020878003202BE002203BE00050037005C
:101200001081E90002087800120278008002EB00E9
:101210006033B800049CBE000694BE0008689000CD
:1012200082C6B300824F50000D00320022C6B300C8
:10123000824F500004003A000482FB008002EB0061
:101240006033B8000800370042C7B300824F500037
:101250000300320066414100824F500004003A0012
:101260008002EB006033B800049CBE000694BE0010
:10127000381090000038A300140032003802BE007D
:101280002803BE00E00F5200E08F5A00E00F5B0021
:10129000E08F5B000D00320080C7B30080CF5000AC
:1012A0000300320080C5B30080CF500007003A0031
:1012B0002808900002C3B300827178000000E800A3
:1012C000817178000000E800200C98002808900048
:1012D00080814100730498003E0037000869900047
:1012E000C3C6B3009080E900834F51002200320052
:1012F0000A003C00E4C15100834F51002500320038
:1013000083C1E800834F510013003200E8C151004F
:10131000834F51001E003A000A00370043C7B30054
:10132000834F51001B003200E6C14100834F510042
:1013300018003200E9C15100834F510014003A00F7
:10134000050037000108780011007800286490003B
:10135000084878005F003700010878001100780025
:1013600018129000CFA2DE00612BB9000498BE00D5
:101370000690BE0057003700010878001100780081
:1013800018119000CF91DE000288BE005100370096
:101390009080E9000108780011007800181490008E
:1013A000080878004B0037009080E90001087800B9
:1013B00011027800CFA2DE00612BB900049CBE00B0
:1013C0000694BE00280890008081410073049800B4
:1013D00081C7B300080078004B0107003D003700CB
:1013E0000869900051C6B300814F51001A003A00BD
:1013F00010017800E4005100010878001100BE00DF
:10140000000C9800110C9800881190000300E00077
:1014100007003D008081EB000001EB00D2030700D4
:101420000001BE00880890008100510008003700CC
:101430000001EB00CC0307000081700003003200C4
:1014400008099000820050000100370088109000C9
:10145000410C98001F0037009080E90001087800D7
:10146000110578007A049800881490000900E000C3
:1014700004003D000A00780086FD07008004780023
:1014800007003700090178008000EB000A007800AF
:10149000FB0007000000E000010032008A04500059
:1014A000490C98000B0037002808900081717800E3
:1014B0000600370028089000808141000104E00008
:1014C00001003A0051C2B300814978000000E800F1
:1014D000200C98000000EB004F0578004F04BE0080
:1014E00000000600C0B02000FB003700881F780015
:1014F000A8EF21001804E00003003A00F9FF0700FC
:1015000020C0B300004C78004F04780000000600B3
:10151000889FBE000004780008007800490007009A
:1015200080047800000420001800600002003200EF
:101530002800900087FC07000000EB0020049800C2
:10154000384090000004E000050035000000FB007A
:1015500082FC07000000E000010032008084EB0004
:10156000181090000000E0000800320084FC070022
:101570000000E000010032008084EB0018109000B1
:1015800074FC07000000EB00101498000008200015
:10159000180060000F003200E1E221000000EB00C3
:1015A000D10F140005003A000000400001E32100C3
:1015B000008040000008EB00030037000000E80056
:1015C000E80F5000F6FF3A000800780061FC0700C1
:1015D0000E003700000C780000C0EB00304498008B
:1015E0006002200008004000200498004004980099
:1015F00050049800400C980060049800500C98002B
:101600007004980076004400000C980009007800EF
:101610004F04BE0000000600889FBE0008E42100C1
:10162000F0045400480078000000E000010032009F
:10163000B7FF0700890F5400FAFF3A004F04BE00BD
:1016400000000600889FBE008A1F78000004780012
:101650000800E0000D003A00E8E2210070054400B7
:101660008004EB00580078000000E0000400320025
:10167000F4FF07000000E00001003D008084EB0063
:101680008A0F5400F7FF3A002500370000002200BF
:10169000180060008004EB0021003200A8049000D4
:1016A0000F00370009015100384090000000FB0096
:1016B000890078003BFC07000000E00007003C00C8
:1016C000280090004004980060049800500C980096
:1016D0001890A0008084EB00110037008084440043
:1016E00048019000828F5400EEFF390028009000DE
:1016F000400498009800780002C020000281600039
:1017000001003A003800900001E8A3000200320016
:101710006004980001003700500C98008004EB0032
:10172000090078004F0578004F04BE000000060055
:10173000889FBE008A9FBE008C9FBE008E1F7800CF
:101740000006780001047800020078008304780025
:101750000881B900020778000200E0004200320070
:101760000800E0004100320082057800C9009000C6
:1017700069009000808F5000040039000900780053
:10178000E1FC07000000E0002900350000402000D7
:10179000190060000A0032000B017800A10020004F
:1017A0000C00780036000700800678000D00E0008D
:1017B00006003200610516000A8546000400370065
:1017C0000B0578008006EB00010037000B05780060
:1017D00049009000E9009000808050008A8F5000FE
:1017E00002003100010578008006EB000A01780054
:1017F0008C00780008FC07008A855500490090009D
:101800000A004000C00498000D00E000040032000F
:10181000090078008BFF07000000E00004003A0098
:101820000B00E000020032000A064600CFFF37003E
:1018300000802000190060000200320009007800DA
:1018400080FF070000C02000190060000200320085
:1018500049009000E00498008B0557001100090032
:101860008885D800010037000000EB004F077800A2
:101870004F06BE004F05BE004F04BE00000006002C
:1018800003003700B0CF1000050032000201E9006C
:10189000800178000200E000FAFF3A000000050035
:1018A0000300780000000600020037000304E00097
:1018B000060032000001780002007800B041780094
:1018C00081CF5100F9FF3A00010037000001EB0021
:1018D0000200780000000600010020000100E00086
:1018E00008003200010080000100E0000500320025
:1018F0008100E90001008800818040000200800032
:1019000000B1780000000600FC874700889FBE00F9
:101910008A9FBE008C9FBE008E1F78000006780054
:1019200080C5B30080CF50000A00320077404000ED
:1019300080CF50000A0032006940400080CF500044
:101940000B003200F0E9210080BF9F00AE002000B4
:101950000A003700E2E8210082BF9F00060037003E
:10196000F3E9210083BF9F008E00200003003700B1
:10197000F4E9210084BF9F000E0120003C02BE005C
:101980002C03BE000605BE000404BE0040C6B30022
:1019900080CF5000030032006540400080CF5000EF
:1019A0000B003A00E00F5200E08F5A00E00F5B009E
:1019B000E08F5B0006003D006000B8006011B800D9
:1019C0000404500085845800060559008785590095
:1019D000E80F57000400320040002000F00F5700CD
:1019E00038003A000100370030002000E00F5400BA
:1019F000E08F5C00E00F5D00E08F5D0004003A00C6
:101A00008C1090008D0120000100E00006003200E3
:101A10008E00E900888060008FBA9700E5C07800EA
:101A2000F1EF9F007D012000800078008100E90037
:101A3000050033008B05D1000A85D3008984D300CB
:101A40000884D300F9FF3700089EBE000A96BE0046
:101A5000120037008D06E9008E00E90084806000E6
:101A60000FB99700E2C1780082FD2F000F014100FD
:101A700003F17E00800078008100E900050033005A
:101A80008783D1000683D3008582D3000482D300EC
:101A9000F9FF3700049EBE000696BE003C02BE0061
:101AA0002C03BE00E00F5200E08F5A00E00F5B00F5
:101AB000E08F5B008B0034000D00E000E5FF3C0090
:101AC000880037000C68900081C6B300814F500039
:101AD0000B00320006003C000004E0000800320069
:101AE000E6C05000814F50004E003A00040037001D
:101AF000C1C6B300814F50004A003A0021003700B0
:101B00000800E00004003A000C1090008D01200055
:101B10000000E00006003200110009000E84D80029
:101B20000FB99700E2C07800F1EF9F007D0120001F
:101B3000110009000E84D8000A00370011000900C6
:101B40000E04D8008D06E9000E81B900020454008D
:101B50008FB8970061417C0081FD2F008F8040008D
:101B600082F07E00000478000800E00002003200ED
:101B70000D00E000F1FF3C00CFC4DE00614DB90074
:101B800025003700E00F5400E08F5C0004003A00AD
:101B90000C1090008D0120000000E00007003200D2
:101BA0006171B9000800BE00190207008FB99700E3
:101BB000E3417800F3EF9F007D0120006171B900DF
:101BC0000800BE0004FB07000B0037006171B9007C
:101BD0000800BE00FF0107008D06E90000F1B90012
:101BE000020454000FBA9700E4427C0084FD2F00E9
:101BF0000F02420005F27E000004BE00E00F50001C
:101C0000E08F5800020032000D00E000EFFF3C00C2
:101C10004FCDDE008A057800089EBE000A96BE0001
:101C200030003700E00F5400E08F5C00E00F5D00F3
:101C3000E08F5D0004003A000C1090008D01200040
:101C40000000E000090032006172B900612BB900A8
:101C50000800BE000A01BE00900207000FBA9700FC
:101C600064427800F4EF9F007D0120006172B900AA
:101C7000612BB9000800BE000A01BE008002070007
:101C80000D0037006172B900612BB9000800BE0079
:101C90000A01BE00850207008D06E90000F2B900C6
:101CA000040454008FBA970065427C0085FD2F0024
:101CB0008F82420084F27E00009EBE000296BE002B
:101CC0003C04BE002C05BE00E00F5400E08F5C0019
:101CD000E00F5D00E08F5D00020034000D00E000C9
:101CE000E8FF3C00E80F570010003A003C1090005D
:101CF0000038A3000D003200F78F560006003E00AA
:101D000085FD2F008F824200E5C07E0000C3B30036
:101D100080CF5000050032008D06E90002C3B300F9
:101D200081FD2F008F80400082F07E0078811600B8
:101D3000420E98007C00900083FD2F008F814100AF
:101D40008D804100B4FA07004C0890008C10900080
:101D5000810F500006003D0000805000300E9800BA
:101D60003C1090000040A100301698000F00370092
:101D70000100E0000D003D00BC109000F480600008
:101D8000F08F500009003A002C119000AC08900030
:101D9000810051003C09900082805000008050007A
:101DA0004240A90001003400300E98004F0778002F
:101DB0004F06BE004F05BE004F04BE00CF01B1006C
:101DC000000006000400FA00889FBE008A9FBE0043
:101DD0008C1F78000004780001067800A814900099
:101DE00028089000808454003808900080845400B3
:101DF0004808900080845400580890008084540063
:101E00006808900080845400780890008084540012
:101E10000002220090BF9F0000032300A0BF9F008C
:101E2000381090000028A30015003A000900E000D7
:101E300013003400090578008A057800E20F550088
:101E4000010036002B002000C80190000B01780033
:101E5000EE805700680090000300010060049800C5
:101E60000000E000AA003200181090000B004000B3
:101E7000101498000B0555004240A900EEFF3C00ED
:101E8000280990000200E0000C003400C801900016
:101E90008C00780068009000030001006004980046
:101EA0008080EB000000E0009A0032009810900063
:101EB000280890000080400010149800380D900011
:101EC0000A00E000110034008A057800E20F550096
:101ED000010036002B002000C80190000B017800A3
:101EE000EC80570068009000030001006004980037
:101EF0000000E00086003200181090000B00400047
:101F0000101498000B055500EDFF3700086990008C
:101F1000C808900050C6B300804F510008003A0036
:101F20000100E000150034005802900008099000FC
:101F30009809900068009000040001000700370035
:101F40000100E0000D003400C8019000010178009C
:101F5000F800900068009000030001006004980001
:101F60008080EB000000E0006A00320098109000D2
:101F7000480890000080400010149800580D900010
:101F80000A00E000110034008A057800E20F5500D5
:101F9000010036002B002000C80190000B017800E2
:101FA000EC80570068009000030001006004980076
:101FB0000000E00056003200181090000B004000B6
:101FC000101498000B055500EDFF370008699000CC
:101FD0006808900051C6B300814F51000D003A00CF
:101FE0000000E0001C00340078019000C808900058
:101FF000010141006111B800828FD2008381D200BB
:1020000058029000800078006800900004000100F1
:10201000090037000000E0000F0034007801900054
:10202000C808900081004100C801900000017800BC
:102030006800900003000100600498008080EB00BD
:102040000000E00033003200981090006808900013
:102050000080400010149800780D90000A00E00005
:10206000110034008A057800E20F550001003600A7
:102070002B002000C80190000B017800EC80570075
:102080006800900003000100600498000000E00078
:102090001F003200181090000B0040001014980030
:1020A0000B055500EDFF3700381090008000EB0065
:1020B0000028A300170032000900E00015003400DA
:1020C00009057800E28F5400010036002A00200044
:1020D000C80190000A017800EE8057006800900067
:1020E00003000100600498000000E00008003200D6
:1020F000181090000A004000101498008A845400C0
:102100004240A900EEFF3C008000EB0001003700D8
:102110008080EB00010078004F0678004F05BE007C
:102120004F04BE000080FA0000000600010878009D
:1021300000000600E6874700889FBE008A9FBE0019
:102140008C9FBE008E1F780082BF9F000404780021
:10215000029AB900F4B79F000400E0005900320071
:102160000FB997000200E000570032000006BE00E1
:1021700004077800C800900068009000808F50002D
:1021800004003900080078005FFA07000000E00052
:102190003B00350000402000180060000A003200BB
:1021A0008E017800A20020000C00BE006E00070027
:1021B0000005BE0000807500070032008C04550049
:1021C0008904E800050037008E0478000A0020002A
:1021D0000B002000010037008E04780048019000B9
:1021E0006800900002005000890F50000300310089
:1021F000800478000A0020000B0020006111B80064
:10220000828FD2008381D200090278000C00BE00C8
:1022100038000700090757004800900009004000F7
:10222000400498000A857500040032000800780018
:1022300004FD07000000E00011003A000E00E0007D
:102240000F0032006148B800808FD2008180D20038
:102250000000780000F0A1008C01D0000001D00047
:10226000028641004220A80081864E004200A9005B
:102270004220AE004200A8000C86D300BDFF37000C
:102280000080200018006000020032000800780082
:10229000ECFC070000C020001800600002003200C3
:1022A000C8019000630498007FB097000E075000AB
:1022B0000FB99700110009000287D800800178004B
:1022C000010037008001EB00030078004F07780021
:1022D0004F06BE004F05BE004F04BE006F00B100A8
:1022E0000000060000C0DA000000060000C0DA00AE
:1022F000000006003400F8000203BE0082027000F5
:102300008502720002F0A60000F0A6008100E8003D
:10231000A10188001500B2000800320010597800B1
:102320000402E9000D00320061004000FBFF3900AB
:102330003420EC0000002800F8FF37001019780066
:102340000482E9000500320062004000FBFF390012
:102350003420EC0000002800F8FF37003400F900BA
:102360000601BE00000006000300E0000700320086
:10237000A5018000A101880010427800A501880015
:102380000402FB00820F5200110032008301E900B9
:10239000A5018000A101880010427800A5018800F5
:1023A0000404E00008003200000278001000B000D1
:1023B00000026A004260AF0000F0A0000482D20078
:1023C0000180B000E8FF370000002000010020007D
:1023D00000000600839F68000100E00002003D004D
:1023E00060001000E08018000300E00002003D00E3
:1023F00060011100E0811900F7F807004F00E000CC
:1024000002003B0060001000E080180000000600A1
:10241000F1F807000400BE0000000600889FBE001F
:102420008A9FBE0030044200B0844A0030054B0051
:1024300090854B006000B1000898BE000A90BE0075
:102440000440E10005C8E10006D0E10007D8E10042
:1024500002003100680040001008E8004F05BE008F
:102460004F04BE0000000600889FBE008A9FBE0089
:102470003004BE002005BE000418540005985C001E
:1024800006185D0007985D00110020000440E1007F
:1024900005C8E10006D0E10007D8E10001003900DD
:1024A0008000EB00108810004F05BE004F04BE00F6
:1024B000000006001200FA00889FBE008A9FBE003E
:1024C0008C9FBE00E0B79F00F1B79F0082BF9F00C6
:1024D00093BF9F000605BE000404BE000000EB0091
:1024E000D0B79F00C0B79F00B0B79F00A0B79F00B4
:1024F00090B79F00000678005FB19700CFB09700BB
:10250000820141003FB097000200E00004003D005E
:10251000370007007E805700C0FF07000300370028
:10252000330007007E805700CFFF0700DFB697001B
:102530000D00E0000C0035006FB29700FFB297006D
:102540000FBB97009FBB97001000200001002000E8
:102550006011B800000272008182720002037300F1
:10256000838373001B0007000C06E80001042000B1
:10257000810F5600E0FF3A000D00E00004003D002E
:102580000802BE000A03BE007E805700A3FF0700BA
:102590005FA897000000E00005003A001FB2970016
:1025A000AFB297003FB39700CFB397000900070081
:1025B0006FB09700FFB097000FB997009FB99700D1
:1025C0004F06BE004F05BE004F04BE000080FA005B
:1025D000000006000100070000000600A4B79F00ED
:1025E000B5B79F00C6B79F00D7B79F000000060091
:1025F0004F09DE0082817100B3B79F004F01DE00FA
:102600008180400082807000A1B79F008FB097004A
:102610004F09DE00000040000200700090B79F00EC
:102620007FA897004F01DE0081804000828070000B
:1026300081B79F000D0007004F3ADE000000400008
:1026400004007000F0AF9F00080007000402420081
:1026500085824A0006034B0087834B00DFFF07009B
:102660000802BE000A03BE00000006002FB2970059
:10267000BFB297004FB39700DFB39700000006008A
:10268000881F780018002000881F780089FF070045
:102690008F87E9004F04780000000600801FEB00E0
:1026A00084FF07008F87E90000000600889FBE00B6
:1026B0008A9FBE00E00F5000E08F5800E00F5900E5
:1026C000E08F59000C003D006044B8006055B80030
:1026D0000000540081805C0002015D0083815D0088
:1026E000180020001500070008003D001800070032
:1026F0000004EB00050037000004EB000F000700AA
:1027000002003D001200070018002000DCFF070057
:102710000800E000060032006022B8006033B80014
:102720000000520081805A0002015B0083815B003F
:102730004F05BE004F04BE0000000600E00F52002F
:10274000E08F5A00E00F5B00E08F5B0000000600A6
:102750006044B8006055B8000402540085825C00F3
:1027600006035D0087835D00000006001201000083
:10277000000200000200000000080000D804000071
:102780000A0000000001000001020000000100003A
:1027900009020000430000000201000000C0000028
:1027A00032090000040000000001000002020000E5
:1027B00001000000052400000010000001040000DA
:1027C00024020000000500002406000000010000B3
:1027D0000524000001000000010700000581000041
:1027E000030A0000000200000904000001000000CC
:1027F000020A0000000000000007000005020000BF
:1028000002400000000000000705000082020000F6
:102810004000000000000000040300000904000064
:102820001403000053000000750000006400000065
:102830006F0000004D000000610000006B00000010
:1028400065000000720000002E030000520000002E
:102850006500000074000000720000006F000000BE
:1028600057000000610000007600000065000000D5
:10287000200000004F000000500000004C0000004D
:102880003300000020000000450000007800000038
:10289000700000007200000065000000730000007E
:1028A00073000000C89300000C9400001094000016
:1028B00024940000756D00006D3A0000206900004E
:1028C0006E690000743A0000206800006561000035
:1028D000703D0000307800002530000034780000A2
:1028E0002C20000068650000617000005F7300002C
:1028F000697A0000653D0000256C0000752C000021
:10290000206200006C6F0000636B00005F730000CA
:10291000697A0000653D0000257500002C2000004C
:102920006E7500006D6200006C6F0000636B00004C
:10293000733D0000257500000A000000756D000061
:102940006D3A0000206900006E69000074200000EC
:10295000646F00006E650000000000002D2D000077
:1029600020430000444300005F410000434D00004D
:102970003A200000437200006561000074650000A9
:10298000002D00002D20000043440000435F0000A4
:10299000414300004D3A0000204900006E690000EC
:1029A000740000002D2D000020430000444300006F
:1029B0005F410000434D00003A20000043680000E2
:1029C000656300006B5200006571000075650000D2
:1029D000737400003A20000062520000657100002C
:1029E00075650000737400003D300000782500001C
:1029F00030320000780A000000000000545200004D
:102A0000415000003A200000257500000A00000037
:102A10001628000000000000000000000000000078
:102A200040F28000E70F50001B003E0040F28000A3
:102A3000A1E621001104E0002D003A0012C0B3000D
:102A4000824878008080FB0042F2800081005100C3
:102A500041F28800F1F280008048780061E82100AE
:102A600061F3880031F280000108A30016003200F3
:102A70000004E0002700320021F2800062F38000B1
:102A80003159780062F3880021F288000040E900A3
:102A9000F9FF3A00000006008100200001407800A4
:102AA00042F280008100510041F28800F1F2800082
:102AB0008048780061E8210061F3880031F28000ED
:102AC0000108A300EAFF3A000004E000F1FF320031
:102AD00021F2800062F380003159780062F38800AF
:102AE00021F288000040E900F9FF3A0000000600EA
:102AF00012C0B300914F1100020032008080FB0031
:102B0000D1FF370022C0B300824878008080FB00EC
:102B1000CDFF3700000006009EC0A9008EA4EF0084
:102B20008AA4EF00AA24EF00AC24EF00AE24EF004B
:102B30002000200030258800A824EF008644A9004A
:102B4000F0092000802488006024880082C4A80046
:102B50008804A800030022004818DE00C024880072
:102B60000000EB00C200DD00818041008008EB0026
:102B7000B11078000000E800EC0F5000F9FF3A00B7
:102B80009424A8009624EF0094A4A9009424A900FA
:102B900066E4210025E521000501E8008200E80047
:102BA0008400200054248800004BEB00804AEB0096
:102BB000124078000049EB00114078008048EB009B
:102BC0005024800068006000F6FF3A0011C0B30096
:102BD00082E721000149780092E72100014978004D
:102BE00021E421008048780001E421008048780039
:102BF000B1E4210080487800C0F2880011E721008C
:102C00008048780041E721008048780000F3880080
:102C1000D0F2880021E721008048780051E72100A8
:102C20008048780010F38800E0F2880031E7210046
:102C30008048780061E72100804878008100220008
:102C4000F1F28800D100200051258800E1E7210041
:102C500011008900810020008149780011002200C4
:102C600042C0B300824878001174A000E1E4210062
:102C7000804878006011B800D2F38800E3F3880040
:102C8000F1E421008048780060F28800000006002E
:102C90008181FB000338A30012003A000080FB0092
:102CA0000328A3000B003200800140000301E8006C
:102CB0004311DD00040022000401410012F0A100D4
:102CC000E4E5210002B2790012E0A10064014100B4
:102CD00012E0A00000004000A24A2000017178002C
:102CE000000006000080FB0000024000C322DD005F
:102CF000020022000281420012F0A10085E52100BD
:102D000082327A0012E0A1006401410012E0A000CA
:102D1000E3FF37000104E0001C0032008082FB006A
:102D200005804200E4E52100640278000000EB0029
:102D30000400E0001400320012029800034A7800F8
:102D4000144090000044B2001042980014409000DB
:102D50000034A00010429800144090000074A000BD
:102D6000104298000104E0000D003A0080E52100C7
:102D7000858242008500400060807A000020A20029
:102D80008008780004007800000006008082FB00C4
:102D90000580420084E5210064027800E3FF3700EB
:102DA000E0E52100858242008500400060807A00D5
:102DB0000020A200800878000400780000000600CF
:102DC0000004E000110032008180FB000080FB0065
:102DD00000004000008040004300DD0002002200AF
:102DE000820140001342900041C8B30001427200CA
:102DF000944198006400400002004000104190009F
:102E000081407100114098000000060081C0B300AD
:102E100040F380000148780040F38000E1E72100A2
:102E200011009800C1C0B3001140980041F3800028
:102E3000114090000074A0009040980041C0B30081
:102E4000F0F2800011409800F1F2800011409000F3
:102E50000074A000904098000000060094A4AB000D
:102E6000170032000080FB0000004000E1E5210077
:102E7000610178001203BE00040420000603620012
:102E80008003EB000689BE00E10278001501BE0058
:102E90000260A200828ABE00610178000220A200C6
:102EA00082307800924190000344B20013419800B0
:102EB000610078009040900004C2680014409800BF
:102EC000000006009424EF008C24EF000000EB00CB
:102ED00060F288000000060060F280000000E00060
:102EE00012003A009424EF008C24EF002000200010
:102EF00030258800A824EF008644A900F0092000AE
:102F0000802488006024880082C4A8009EC0A80095
:102F10009404AB0003003A009404A8009404AB00AE
:102F2000FDFF32001000200060F288000000060063
:102F300080E721001004E0000D003A0011C0B3004A
:102F40000148780090E721001004E00008003A00F2
:102F500001487800B0E6210021C0B30090CF1000F6
:102F60001A00320010407800E14F5000010032009A
:102F70000000060004E72100004AEB0083C0B30014
:102F800031F380008348780031F38000E2E72100CC
:102F90009200980045C0B3009540980035F380003A
:102FA000954090000174A00091429800004A78007A
:102FB00040F380000348780040F38000120098003E
:102FC00001C8B3001140980000000600F0F2800034
:102FD0000048EB0081C4B300F0F28000114098007B
:102FE000F1F28000114090000074A0009040980021
:102FF0000000060020E421000048EB0000E421006E
:103000000048EB00B0E6210021C0B30090CF1000D3
:103010001A00320041E821001181FB000100E800A4
:103020009081FB00C819DD008301710042F280002D
:10303000828F5100050031009180FB001080FB0061
:103040004800DD000080700040F2880074FE070038
:1030500061E82100F0F280001100980081C4B30003
:10306000F0F2800011409800F1F2800011409000D1
:103070000074A000904098000000060081C0B300DA
:1030800040F380000148780040F3800061E82100AF
:103090001100980081C4B3001140980041F38000F2
:1030A000114090000074A0009040980000000600BD
:1030B000D0F38000E1F3800061004000E080480030
:1030C000D0F38800E1F38800B0E421001004E000B0
:1030D00005003A00F0E421001048E8001004E00088
:1030E00001003A0000C8EB0000000600EA87470034
:1030F000889FBE008A9FBE008C9FBE008E1F7800F6
:1031000060F28000E10F50003A0032008084AB0092
:10311000020032008284AB0093003A008824AB00A6
:103120002D003A008A04AB00020032008C04AB0090
:103130009F003A008A84AB00020032008C84AB000E
:10314000B0003A0080C4AB0081003A008A44AB0072
:103150000A0032008C44AB00BA003A004000200064
:103160005024880070E721001004E00001003200C4
:103170001048E9001004E000890032008AE4AB0046
:103180000C0032008CE4AB000A003200AA24AB0031
:103190000600320030F380001041900001C8B300F7
:1031A000814F5100F4003200AA24A9000008200039
:1031B000502488008A24AB00020032008C24AB002B
:1031C00084003A0060F28000E30F500002003600F5
:1031D0008C64AB000F003A008EC0A9004F07780046
:1031E0004F06BE004F05BE004F04BE00AF00B10049
:1031F0000000060094C4AB00C4FF3A008AA4EF00AC
:103200008C04A8008C84A8002000200060F28800B4
:10321000BEFF37000044EB000AC023000940230032
:103220000C0024000D4028008A64AB00EAFF320045
:1032300091248000E0E62100014878001081FB0025
:103240004411DE00F1E6210082487800820020006F
:10325000522488009041780068C1610084003A00DF
:103260001181FB0043E72100634279006142620063
:103270000404A200E34279000504A10004C2720024
:10328000847179001104E00084003A00D2C2B300D6
:1032900071E7210082487800E1E621001081FB00FF
:1032A0000220A1000200E00085003A001180FB002E
:1032B000C00FB2000B0022000080450030F38800F0
:1032C000800178000320A20043F38800900065008D
:1032D000898F5000BE003200B1E6210025C0B30046
:1032E00091CF12001A0232008048EB0000E7210063
:1032F0001004E0009B003A0080C0B30080497800D1
:1033000040F38000E1E7210011009800C1C0B30044
:103310001140980041F38000114090000074A0001B
:10332000904098000844E800E44F5400BEFF3A0083
:103330008EC0A9004F0778004F06BE004F05BE00A3
:103340004F04BE00AF00B10000000600A9FF370027
:10335000000420000024880055FF07008A44AB00C9
:1033600086FF32007BFF3700080120000824880018
:10337000B0E421000048EB000001EB00820078007F
:10338000400720007C2D0200000000008284A9007C
:1033900008248800F0E421000048EB005FFF3700BC
:1033A000E3FE07008AE4AB0082FF320075FF3700BE
:1033B000D9FD07009EC0A8004000200060F28800F0
:1033C00010002000502488008A84AB005DFF32008A
:1033D0005AFF3700120020008000EB00F0FF2700AA
:1033E0007C2D0200000000008EA4EF0020002000D1
:1033F0005024880060F28000E30F500074FF3E000C
:1034000075FF37008284A800000120005024880046
:1034100011C0B300B0E4210001487800F0E42100BD
:103420000048EB000001EB0082007800500720000C
:103430007C2D02000000000080C4AB0043FF32007E
:10344000C3FF3700120020008000EB00300720008F
:103450007C2D020000000000400020005024880065
:1034600070E721001004E00042FF320040FF370007
:103470001181FB0013E72100634279006142620081
:103480000404A200E34279000504A10004C2720012
:10349000847179001104E0007CFF32000001EB0030
:1034A000E1E62100200720007C2D02000000000042
:1034B0000844E800E44F54005BFF3A009CFF3700EB
:1034C000114078000024A100E84F500095FF3A0019
:1034D000E0E52100F1F28000110178004E11DE00DC
:1034E000E14561000120A2000108780060F280003F
:1034F000E80F50002D003200BEE6210016C0B300D8
:103500009E4F13001202320023E521001304E00055
:103510000F003D00E38041001181FB006480410009
:103520001082FB004822DD00040171000700320018
:103530009180FB001080FB004800DD0000807000DF
:1035400083BF9F00000001008FB997001374A10092
:10355000004FEB000844E800E44F540032FF3A000B
:1035600073FF37000048EB000844E800E44F5400C4
:103570002DFF3A006EFF3700F1F2800011419000FC
:1035800041C8B300814F510007FF3A00C1C0B300EA
:103590001140980031F38000114090000074A000A9
:1035A00090409800AA24A90000FF370000E82100FD
:1035B0001080FB00F007B200B02488009604E200FF
:1035C000E00132000001200060F28800CAFF3700ED
:1035D00010009000E4E72100E5E721000700090062
:1035E000B05A78008000B100A0E621000048EB004E
:1035F00016E42100004BEB0027E42100804BEB0098
:1036000000E421000048EB0000E721000048EB0047
:10361000BEE62100004FEB00E0E52100F3F2800060
:10362000934090000174A1009141980090007800AF
:103630000120A200F1F28800914190000374A100E2
:10364000934098001020A20043F380009340900024
:103650000174A1009141980061E421008048EB00D1
:1036600042F2880023E521008049EB000301E800D5
:10367000924278000049EB000381E8009242780012
:103680000049EB0005C6B30014C162007E003A0099
:103690000401E8001283FB008003EB00EB0F5300F2
:1036A000E08F5B0078003E000660010009013700F2
:1036B0000A00370074003700080037007200370036
:1036C000FE003700ED003700E2003700D50037007C
:1036D000A7003700970037008D00370006E821006B
:1036E00096427800E1CF52000B003A0094437800F4
:1036F000FFC0630008003A0031F280000170A000B2
:1037000031F2880031C0B30092CF10004F02320076
:10371000A1E421008048EB001604E0005A003A00C2
:1037200094427800FFC06200E2CF500056003A0099
:1037300025E8210015437800EF4063005200320075
:1037400095437800EFC063008180FB00E28F50005A
:103750004D003C0066F2800001022000810F530002
:1037600049003A0031F280000170A00031F2880077
:103770001504E00040023500954078006FC36000FA
:103780000683FB000603430081E52100E1057B0081
:1037900015437800EF4063000183FB0041E72100FF
:1037A00061437B000608A30031023A000B20A10010
:1037B00021E821001504E00027023500914078003F
:1037C0006FC060000080FB008000400080E52100A9
:1037D0000BB0780037C0B30092CF1300FA0132006B
:1037E0008B0078000120A2001100E000E501350007
:1037F000114090000064A000904098000618A300BB
:1038000002003A001B00E00026023D0020E82100F3
:103810001504E00005023500104078006F4160009B
:103820000281FB0041E72100614079000014A10002
:10383000807079001B409000B043B2009045980022
:10384000220020008B0078005000200083BF9F00E2
:10385000F4B79F00E5B79F007C2D02000000000038
:103860008FB997007FB29700EFB29700954278002A
:103870006FC062000080FB0000004000A14A2000F1
:10388000010040001014A1000001EB00820078004C
:103890003000200083BF9F00F4B79F007C2D020002
:1038A0000000000094A4A90030F280008FB99700B6
:1038B0007FB297000078A300E4003A001304E00010
:1038C00053013D0020C0B300004F780000E4210008
:1038D0001004E0000800320090E721000048EB00EF
:1038E00080E721000048EB000844E800E44F540062
:1038F0004DFE3A008EFE3700BEFD070090E7210026
:103900000048EB0080E721000048EB00F6FF37009D
:1039100030F280000070A00030F2880020E8210022
:103920001080FB0041E6210002E82100927078003F
:10393000D5FF370020E821009080FB0040E6210001
:103940000080400020F2880030F280000000A000DB
:1039500030F2880011C0B30080E4210001487800F3
:1039600030F280000070A00030F28800C6FF3700FF
:1039700030F280000070A00030F28800AC24EF002C
:10398000AE24EF00020320008000EB0000002200C4
:1039900083BF9F00F4B79F003E04020000000000B8
:1039A0009424A80010E721000048EB0040E7210024
:1039B0000048EB0020E721000048EB0050E7210021
:1039C0000048EB0030E721000048EB0060E72100F1
:1039D0000048EB00220020008000EB0040E62100C0
:1039E0003E040200000000009424A9008000220090
:1039F000F0F288003BF388004BF38800E1E42100FB
:103A000000E82100904878008FB997007FB29700B6
:103A10001104E00011013A000001200060F288006A
:103A200099FF3700E0E4210020F2880030F28000A6
:103A30000000A00030F2880011C0B30080E4210033
:103A40000148780030F280000070A00030F2880059
:103A50008DFF37000001EB0082007800200020007D
:103A600083BF9F00F4B79F007C2D02000000000080
:103A70007FB297008FB9970083FF370000C8B3006B
:103A8000944F100080FF3A0060E4210002CCB300A4
:103A90008248780011E8210091407800E2CF500080
:103AA0001C013200E3CF50000D013200E1CF500085
:103AB0002F0132000048EB0073FF370030F2800026
:103AC0000070A00030F288008000200060F28800C2
:103AD0006DFF370062E821000049EB008200E8003A
:103AE0008048EB0094437800FFC063008180FB00B6
:103AF000E18F5000F6003200E28F5000E200320009
:103B00000100E00007003A0030F280000070A000E1
:103B100030F28800A0E421001004E000010032002F
:103B20001214A00030F280000078A30056FF32008B
:103B300022F2880030F280000000A00030F28800FD
:103B400021C0B30080E42100014878004EFF370017
:103B5000104378000680FB003BE521009B80FB00C2
:103B60008B03E8001781FB004811DD0082807000A4
:103B7000810F5000030036001B83FB001780FB0001
:103B80000680FB009B80FB001781FB004811DD00D5
:103B900082807000008050009B407800804D78004B
:103BA0004800DE0097407800804B78000604E00073
:103BB000110032008000EB0062E8210004E52100E2
:103BC0008401E8009482FB001380FB004800DD00C4
:103BD0000080720062D8780094427800004A780031
:103BE0004800DE0093427800804978008100E800B8
:103BF000814F5300F3FF3E001B80FB009780FB00CA
:103C0000C808DD00010070002D00320081C0B30043
:103C100040F380000148780040F3800062E8210012
:103C20001200980032F3800012016600B8FD3A00DD
:103C300081C4B3001140980041F38000114090000E
:103C40000074A00090409800B6FD370000C8B30093
:103C5000144060005500320010C0B300004F7800DF
:103C600021E421001104E0000C00320090E7210063
:103C70000048EB0080E721000048EB0012E421003F
:103C80001204E000A7FD3A00A9FC07000844E80080
:103C9000E44F540064FD3A00A5FD3700D5FC070051
:103CA00090E721000048EB0080E721000048EB008E
:103CB00012E421001204E0009AFD3A00F2FF3700FE
:103CC00081C0B30040F380000148780040F38000D9
:103CD000E1E721001100980041C0B30011409800B5
:103CE00041F38000114090000074A00090409800C3
:103CF00051E521001181FB000100E8009081FB00EB
:103D0000C819DD0003017100050032009180FB003D
:103D10001080FB004800DD00008070000000010002
:103D200020E521001074A10010E421001004E0003F
:103D3000D5FF32000844E800E44F54003AFD3A0051
:103D40007BFD37004000200060F28800EAFD37006C
:103D500062E82100F0F280001200980030FB0700BA
:103D6000A0E6210027C0B30041C0B30090CF1300EC
:103D70000400320081C4B3000B04E00001003200F3
:103D800081C0B300F0F2800011409800F1F2800091
:103D9000114090000074A000904098000844E80092
:103DA000E44F540020FD3A0061FD370021C0B3000C
:103DB000014F780082C0B30041F380008248780050
:103DC00041F38000E2E721009200980042C0B30076
:103DD0009240980042F38000924090000174A0004D
:103DE0001141980091E721008048780081E7210087
:103DF0008048780013E421001304E000A2FF3200A1
:103E00000844E800E44F540007FD3A0048FD37003D
:103E100081C0B30040F380000148780040F3800087
:103E200014009800C1C0B3001140980041F3800015
:103E3000114090000074A0009040980041C0B30071
:103E4000F0F2800011409800F1F2800011409000E3
:103E50000074A00090409800D0FF370012002000AE
:103E60000200780083BF9F00F4B79F007C2D020002
:103E7000000000000002200060F288008FB9970067
:103E80007FB2970080FE370031F280000170A00001
:103E900031F2880021E821001104E0002E003500F5
:103EA000914078006FC060000080FB00000040007F
:103EB00081E5210061007800108066008D0F5000C0
:103EC00018FF3A0010C0B3000049780015FF370012
:103ED00030F280000070A00030F2880011FF37003F
:103EE00001E8210026C0B300914F1300F1FE3E000F
:103EF0001180FB000000400041452900E1007800EE
:103F000021F2880020F280001080FB0040F288003F
:103F10005DFE370001E821001104E000E5FE3A00F3
:103F20001180FB000000400021452900E1007800DD
:103F300021F2880021F2800080E42100A14090005D
:103F40000148780021F280000000E800B1409000B4
:103F5000014878004CFE370091407800EFC06000C7
:103F60008180FB008180400060807800D2FF3700B4
:103F7000603B290020F288002001200040F28800E8
:103F800041FE3700114090000074A1000064A000C1
:103F900090409800220020005000200083BF9F0026
:103FA000F4B79F00E5B79F00D6B79F007C2D0200B5
:103FB000000000008FB997007FB29700EFB2970022
:103FC0005FB397000DFE37001B00E0000A003D00C4
:103FD00020E821001504E0000C00350010407800B6
:103FE000EF4060008180FB0042E7210062C0780062
:103FF0000014A00000F178009B40900040C8B3007E
:1040000000C07000904598001FFE370010407800F7
:10401000EF4060008180FB0012E7210062C0780061
:104020000014A00000F17800F3FF37001040780082
:104030006F4160000281FB0011E7210061407900BF
:104040000014A10080707900FAFD3700A1E421007E
:1040500085487800B0FD370091407800EFC06000DF
:104060008180FB00818040000BB07800D9FD3700D3
:104070000B20A000CEFD370095437800EFC0630011
:104080008180FB0081804000E08578001543780046
:10409000EF4063000183FB0011E7210061437B00D7
:1040A000C0FD37001B409000B043B200904598001F
:1040B000EEFD3700D2F38000E3F38000D0F3800000
:1040C000E1F38000800F5100818F5900F9FF3A0021
:1040D0000200BE000000060083F7800080804000E0
:1040E000C30ADD004302DD00E3437A008783FB005F
:1040F00004834100164390004833DD0006837300BB
:1041000006F0A1000203730086F17A004833DE0056
:10411000858141009641980082F780008502410028
:10412000A04298004800DE00B04298000400410020
:104130001082FB0090419000C819DD0083017200DD
:10414000C319DD00030141008181FB002341980078
:10415000C808DE00314198000348780011409800FB
:104160000000060081F780004300DD000080400071
:10417000E04190008381FB00704190004811DD0018
:10418000028171004311DD00028140004042900035
:104190000482FB00D0419000C819DD008301720049
:1041A00043419800C819DE0053419800C041900077
:1041B0008381FB00504190004811DD0002817100B5
:1041C0004311DD0082804000E04190008381FB00CC
:1041D000704190004811DD0002817100E2409800BA
:1041E0004811DE00F24098001081FB0090409000E2
:1041F000C808DD008100710001F0A10001487800CD
:10420000C808DE001140980000000600889FBE002C
:104210008004780081F78000434CDD0061417C0020
:104220000281FB0008804000104090004800DD0043
:10423000000071004301DD00828040009140900049
:104240000178A30002003A004F04BE0000000600FF
:10425000C4FF070080F78000080440009880FB003E
:10426000184190004811DD00028170004311DD000B
:10427000020140009281FB0092409000C808DD00DE
:1042800081807100C308DD0081004000A9409800D2
:10429000C84CDE00B94098001881FB00984090009F
:1042A000C808DD0081007100C308DD000100400086
:1042B0009080FB00104090004800DD0000807000FE
:1042C0008000780001F0A100004C78004808DE0072
:1042D000104498004F04BE0000000600DCFF3700C9
:1042E00084F780004300DD0000014200A2429000FC
:1042F0008582FB00B2419000C819DD008381720005
:10430000C319DD00830142001282FB0012419000BC
:104310004811DD000201720081007100F20F2000DF
:1043200082C96000C808DE009141980082F78000D1
:10433000000041009081FB0090409000C808DD0023
:1043400081807100C308DD0081004100A041900020
:104350008381FB00304190004811DD000281710033
:10436000A24098004811DE00B2409800A0409000A2
:104370008180FB00304090004800DD00008070002C
:1043800000000600889FBE0081F780008104500075
:10439000434CDE00080078009CFF070081F7800096
:1043A0004340DD0000804000A04190008381FB007D
:1043B000304190004811DD00028171004311DD00A1
:1043C00002814000124190000278A30022003A00CE
:1043D000414190000281FB00D1419000C819DD00ED
:1043E00083017100C319DD0083814000F80FB20022
:1043F0000041EB00E8419800CB4CDE00F941980009
:10440000414290000482FB00D1419000C819DD00B8
:104410008301720043409800C819DE0053409800A1
:104420006240980072409800C8409800D9409800B7
:104430001081FB0090409000C808DD0081007100F1
:1044400001F0A00001487800C808DE001140980083
:104450004F04BE000000060001002800080078009C
:104460009FFF07004F04BE0000000600FAFF370060
:10447000889FBE008A1F780018002000E40F5000BB
:1044800003003600650450004344DE000884E80061
:1044900084F78000444090000080FB00D4409000EE
:1044A000C808DD0081007000280032000105780096
:1044B000F5FF27004308DD00000042009081FB006B
:1044C000104190004811DD000281710002F0A1004E
:1044D00001015100880F510004003900850F51007F
:1044E000020031000105780082027800C04190008E
:1044F0008381FB00D0409000C808DD0081807100FE
:10450000ECFF3A00F0FF2700808F520010003200CD
:10451000C354DD000501780064C07C000080FB000E
:104520000902420094409000C808DD00810070003C
:1045300001F0A1000000EB000100E00010003A00D3
:104540004F0578004F04BE00000006000001EB009C
:104550008004EB000905780064C07C000080FB004B
:104560000902420094409000C808DD0081007000FC
:1045700001F0A1000000EB000100E000F0FF3200BC
:10458000880F5100EEFF390033003200020028008E
:10459000880078000A007800CFFE070081F78000CD
:1045A0008984400008044500694090000080FB00B9
:1045B000794190004811DD00020070004300DD00E9
:1045C0000080400088017800F30FB200434098005B
:1045D0004841DE00524098004340DD00008040002A
:1045E000694290000482FB00F9429000C82ADD0075
:1045F00005027200644098004822DE007440980072
:10460000494290000482FB00D9429000C82ADD0094
:10461000050272004322DD0084804000E3409800E0
:10462000F2409800C94090008180FB005941900001
:104630004811DD008280700041409800C808DE000B
:1046400051409800648044004F0578004F04BE003C
:1046500000000600BDFF37000A007800C1FE070019
:1046600080F780008904400064804400F6FF370032
:1046700050F7800080F7880062F7800073F78000B1
:10468000C31ADE00CD18DD004312DE000482700084
:1046900094F78800841F780081002000811F780033
:1046A000829FBE00801F7800A0452900801F7800EF
:1046B000300602000000000062F780008000EB007E
:1046C00080F780003E0402000000000080F78000B8
:1046D0008040EB0012C0B3000248780011409800FF
:1046E00080F7800042409800514098006240980056
:1046F0007140980093F780008301E90003F0A00067
:1047000003489800C819DE001348980090F780000D
:104710000000E9004300DD0083F7800000804100D5
:104720002240980031409800E04929004C040200E2
:1047300000000000EC875700000006000200FA00AD
:1047400081F780000100E000050032000000E00079
:10475000010032000BFF07000080FA000000060095
:10476000F0BF9F00C2FF07007FB89700F7FF370038
:10477000881F78000004780080F780000000E000C7
:104780000A0032000000EB000800E00002003A00DE
:104790004F047800000006000800780034FF07008E
:1047A0004F04780000000600FBFF3700B0FF070051
:1047B0000000EB000800E000F5FF3200F6FF3700D4
:1047C000E4874700889FBE008A9FBE008C9FBE0082
:1047D0008E1F78008005780080F780000000E000E0
:1047E000B10032000B00E000D00032000100E00018
:1047F000D700320019002000E48F500035003E0041
:1048000083F78000038455004344DE004341DD000C
:10481000028241009482FB00144090004800DD00B9
:104820000080720008055000C302DD00858241004F
:104830009583FB00154390004833DD000683730029
:104840008002EB004A003300244390000683FB0003
:10485000344090004800DD00000073004302DD009A
:10486000848141001382FB00134690004866DD00FE
:104870000C0672004FE6DE00800154000C866100D9
:10488000890F55000A0031008A864200898F560040
:104890009C0032000C00E00048003A00898F56006E
:1048A000460039000800780058FE07000D05780022
:1048B000890F55001D003E000B0078004F0778005F
:1048C0004F06BE004F05BE004F04BE004F00B100B2
:1048D00000000600E5845000C34CDE008984E80037
:1048E00083F78000038455004344DE004341DD002C
:1048F000028241009482FB00144090004800DD00D9
:104900000080720008055000C302DD00858241006E
:104910009583FB00154390004833DD000683730048
:104920008002EB00C8FF3B00110037000001EB00E4
:104930000800BE00E8FD0700090444004344DD0010
:1049400080F7800008004000640040008DFE0700F2
:104950000B0078004F0778004F06BE004F05BE00E1
:104960004F04BE004F00B10000000600D9FF370021
:1049700006F0A10080025300244390000683FB0050
:10498000344090004800DD00000073004302DD0069
:10499000848141001382FB00134690004866DD00CD
:1049A0000C0672004FE6DE00800154000C866100A8
:1049B000890F5500BEFF3100B3FF37004357DD00BC
:1049C000640757000C054500890F55003A00310077
:1049D00005054500890F55001400310001007800DD
:1049E000A3FE0700000478000800E0006200320027
:1049F0000E0178008B007800080078000C0402009B
:104A0000000000000B0078005EFE07000800780040
:104A10004F0778004F06BE004F05BE004F04BE0092
:104A20004F00B10000000600AAFF37000800780020
:104A300082BF9F00F5FD070080F780000FB9970047
:104A400002014000A24090008180FB0032409000B3
:104A50004800DD0000807000C2FD07008000EB0010
:104A6000080078001EFE0700000478004345DD00C2
:104A700080F780000A004000640040000E017800CA
:104A80008B0078001A040200000000008BF7800001
:104A90000A854500E40545000D054600890F5500CF
:104AA00085FF3600A1FF370081BF9F00F0FE0700A1
:104AB0008FB897004BFF3700AAFD07008000EB007E
:104AC0000800780006FE0700000478004346DD0079
:104AD00080F780000C004000640040000E01780068
:104AE0008B0078001A040200000000008BF78000A1
:104AF0008C854500E4854500890F55006EFF360022
:104B00008AFF370008007800C0FD07000B0078001E
:104B10004F0778004F06BE004F05BE004F04BE0091
:104B20004F00B100000006006AFF37000100780066
:104B30000FFF07004F0778004F06BE004F05BE006D
:104B40004F04BE004F00B1000000060061FF3700B7
:104B50000B007800F9FE07000000EB004F0778001B
:104B60004F06BE004F05BE004F04BE004F00B1000F
:104B70000000060057FF3700080078004F07780054
:104B80004F06BE004F05BE004F04BE004F00B100EF
:104B9000000006004FFF37000400FA00881F78006D
:104BA000010178000091B90002007800D2BF9F0097
:104BB000E3BF9F00EEFE0700000478005FB9970096
:104BC0000800E000040032008000EB0008007800DC
:104BD0003E04020000000000080078004F04780046
:104BE0000080FA0000000600889FBE008A9FBE0079
:104BF0008C9FBE008E1F780000057800810478002D
:104C00000900E0001B00320090ED80000004EB0082
:104C1000BBAA2A005CDB21006DDB21004EDB2100FA
:104C2000E10F50000E0036006A417C008081E900EF
:104C30000B1AB800C228DE00660AB9008480510051
:104C4000E18F50001E0032000F003100FB4F410089
:104C50004000320021003E00FF4F4100360032008C
:104C60000000E80090ED88000804E800888F5400F8
:104C7000EBFF3E004F0778004F06BE004F05BE0019
:104C80004F04BE0000000600E38F5000F4FF3A001E
:104C9000024F78009C4078001D407800882B02006D
:104CA0000000000090ED80000000E80090ED88001A
:104CB0000804E800888F5400D9FF3E00EDFF37005C
:104CC000024E78000000E80090ED88000804E8003B
:104CD000888F5400D2FF3E00E6FF3700E24F4100CC
:104CE0000E003200E14F4100DDFF3A00DDA2A800D6
:104CF000803E2000010020009A2D020000000000EC
:104D000090ED80000000E80090ED88000804E800C5
:104D1000888F5400C2FF3E00D6FF3700DDA2A900F5
:104D20000000E80090ED88000804E800888F540037
:104D3000BBFF3E00CFFF3700804EEB000000E800D5
:104D400090ED88000804E800888F5400B4FF3E000E
:104D5000C8FF370011C0B300814E78000000E800A2
:104D600090ED88000804E800888F5400ACFF3E00F6
:104D7000C0FF3700889FBE008A9FBE0000057800F4
:104D800081047800E18F54000300360020C4B30092
:104D90009A4F1000030032004F05BE004F04BE00C2
:104DA00000000600E28F54001000320028002000AE
:104DB000FBFF23000808A300140032006A407C00B7
:104DC0000080FB0020178800000420000100200064
:104DD0009A2D0200000000000804E800888F5400AB
:104DE000F4FF3E00E78F5400EBFF3E0000882300F5
:104DF000110020009A2D0200000000004F05BE00A7
:104E00004F04BE0000000600E6FF37006A407C0049
:104E1000610160004D11DD00E116800001D0A100AC
:104E200081007100E1168800611680000182650032
:104E30000080FB00C202DE00E1826200CE2ADD00BB
:104E4000E316800003B0A1004401DE0061016100AF
:104E50004B11DD00028171000240A1008000D000F2
:104E6000F0806000828070000150A1000002B2005A
:104E700001007000E0168800850272006516880047
:104E800000042000010020009A2D02000000000014
:104E90000804E800888F5400C6FF3E00D1FF3700A9
:104EA000E8874700889FBE008A9FBE008C9FBE0097
:104EB0008E1F780000067800010578000A00E000E7
:104EC000560032000000EB000044EB001BDB210029
:104ED0006381550071ED800004F82F00020242004A
:104EE0000B0778008286E80013C0B3006C4078009E
:104EF0008084FB000908A3001E003200E00FB2000E
:104F00009B4278000583FB00E80313008783DE00E3
:104F10009DC373000504E0002D00320007F2780005
:104F20000109E8000600DD00804E78008542E800B7
:104F3000054F7800E7CF520001003600004FEB002C
:104F400071ED80000844E8000880FB008A0F5000E3
:104F5000E6FF39000100E00025003A004F07780025
:104F60004F06BE004F05BE004F04BE008F00B100CB
:104F7000000006000100E00009003A00804DEB004F
:104F8000E2846400EFFF3A0099ED88000844E800ED
:104F90000880FB008A0F5000D4FF3900EDFF370076
:104FA000E0D22100E2B79F0083BF9F00F4B79F00CB
:104FB0000DFF0700E0DA21000008EB008000EB00A5
:104FC0007FB297008FB997006FB19700EBFF370062
:104FD0000600DD00804E7800034F78000844E800AA
:104FE0000880FB008A0F5000C0FF3900D9FF37004E
:104FF000E0D22100FCFE0700E0DA21000008EB000F
:105000004F0778004F06BE004F05BE004F04BE009C
:105010008F00B10000000600D6FF370071ED800060
:105020000100E000CDFF3200F1FF37000100780001
:10503000820078009AFF37008650290025C0B3000F
:1050400014C0B300844178000041EB008000EB0005
:1050500000C0210044280200000000008C1502005E
:10506000000000006C1704000000000000000600B3
:1050700000C02100A62902000000000000C021009D
:105080005A29040000000000889FBE009200090019
:105090000018EB006012B1000600E00008003200CA
:1050A000A710200080834300B61B7800A613780069
:1050B00026049000B6049000780099000908990031
:1050C0004100990022509A0033509A0044509A00AF
:1050D00055509A00E04A29004C04020000000000EC
:1050E0004F04BE0000000600881F7800000478000E
:1050F00058509200D1C1B3004816020000000000D1
:105100004850920051C1B300481602000000000050
:105110005850920003C4B300080178008040EB00AF
:105120008A16020000000000101499000000EB0035
:1051300000149900104C29004C04020000000000EB
:105140004F04780000000600889FBE00000478002D
:10515000E0E7210010417800FF406100E1CF5000FE
:10516000020032004F04BE000000060002C6B30079
:105170009040610000C2B30080CF5000F9FF3A00B8
:1051800020E82100A850920090CF100003003200C8
:10519000B850920090CF1000F2FF3A00F9E72100DA
:1051A0001980FB00801F7800204D2900801F7800A7
:1051B000300602000000000019407800E487570024
:1051C00001C2B300814F50000D0032002C003E00A0
:1051D000E14F5000E3FF3E0060D2210020F2880042
:1051E0008000200040F2880001CCB30060E4210080
:1051F000014878004F04BE0000000600DBFF3700C6
:105200006811B00000E5210090407800084878005F
:105210004844DE000000E80090407800084878002C
:1052200040E821001080FB0051E821009180FB0044
:10523000C808DD000100700031E52100114178004F
:1052400080487800C800DE0040E521001041780069
:10525000014878000000E800904078000048EB002A
:105260000000E800904078000048EB006400500027
:105270001074A0004F04BE0000000600BBFF370002
:1052800011C2B300814F5000B6FF3A006811B00060
:1052900028F288007000200040F2880011CCB30092
:1052A00060E42100014878004F04BE0000000600C1
:1052B000AEFF3700889FBE008A1F78000004780088
:1052C000181091000000E000020032001000E00021
:1052D0001B003500E8449200104578000941E800C1
:1052E0006141610062449A000281FB004611DD00C9
:1052F000020144005850920003C4B3008040EB0008
:105300008A16020000000000101499008984FB0036
:10531000090044000A4099008040EB0021409900B8
:10532000D80191000300E000050032000A81FB0073
:10533000C64CDD00890044004800910003000100D4
:105340004F0578004F04BE0000000600889FBE0095
:10535000000478009EC0A900081091000000E00041
:105360000300320029C0B3001000E000080035003F
:10537000784092000080FB004110200080804000B7
:10538000E8C178008044EB000304E00004003A0028
:105390009EC0A800094078004F04BE00000006002F
:1053A00042082000080141004600DD0000014100E4
:1053B0005850920011C0B3008A160200000000008D
:1053C00000149900784092000040E80061406000BD
:1053D00070449A000080FB000004440049449A0095
:1053E00019C0B3009EC0A800094078004F04BE0059
:1053F00000000600EAFF3700881F780000047800EC
:1054000008007800D1FF070008007800A9FF070016
:105410004F0478000000060043082000808141000E
:10542000704192000281FB004611DD00828841003C
:10543000704192000281FB004210B0000200400067
:105440009000980000000500889FBE008A1F780029
:1054500080047800794592000A85FB0002047800F8
:1054600000042000800F5400010036000004780082
:1054700042082000090141004650DD0000004100C3
:10548000080178000C040200000000008A84440037
:10549000C8449A00080078004F0578004F04BE0009
:1054A00000000600EA1E00000600000002000000E6
:1054B00000080000140000000008000000140000B4
:1054C00000000000F01E00000400000000000000CA
:1054D000F81E00000200000002000000FFFF0000B4
:1054E000B01E00002000000000000000001C0000B2
:1054F0002E01000000000000401E00004E000000D1
:10550000000000000020000030000000000000004B
:10551000F41E000004000000000000002E1D00002A
:105520008A00000000000000B81D00008800000094
:10553000020000000100000000DE1D00DF1DDE0093
:105540001DDE1D00DE1DDE001DCE1D000000000062
:10555000000000000000000000000000000000004B
:105560000000000000000000000208000101060029
:105570001E071E00061E06001E061E00061EF60062
:105580001D000000000000000000000000000000FE
:105590000000000000000000000000000000020009
:1055A000080202002E1E2F001E2E1E002E1E2E0090
:1055B0001E2E1E001E1E0000000000000000000045
:1055C00000000000000000000000000000000000DB
:1055D00000000000B81DE0001D081E0000000000D3
:1055E000000000000000000000000000D01E0000CD
:1055F0001A00000002000000686A6C00747A4C0017
:10560000000001000002000004000800001000007B
:10561000000020002B2D230030000000FA1E0000A7
:1056200002000000000000008E1E000022000000AA
:105630000200000030313200333435003637380094
:1056400039414200434445004600300031323300C6
:1056500034353600373839006162630064656600AE
:105660000000000000000000889FBE008044780019
:1056700001447800010028001230800002806000A0
:10568000FDFF3A00C0002000010020009A2D02001A
:10569000000000008984FB0009E0A0002930880098
:1056A000010028001230800002806000FDFF3A00F7
:1056B000C0002000010020009A2D02000000000020
:1056C0000884FB004840DD00000074004030880082
:1056D000010028001230800002806000FDFF3A00C7
:1056E000C0002000010020009A2D020000000000F0
:1056F0000426EF004F04BE000000060000404000FA
:10570000D9FF37008040780010C0B300D6FF3700C3
:10571000881F78000244780000404000D2FF070054
:105720008840780010C0B300CFFF07004F04780016
:1057300000000600D02D0200000000001C2802001E
:1057400000000000DD62A800D962A900DCA2A80068
:10575000D8A2A900DC82A800D882A900CDE2A800C6
:10576000C9E2A900CDC2A800C9C2A900DDA2A90052
:10577000D9A2A90000F02F00E022B60030002C00D2
:1057800060308800F02D200010308800003828009C
:105790000030880000F42100010020009A2D020052
:1057A00000000000DDA2A800382802000000000070
:1057B0003828020000000000FBFF370070132000B3
:1057C000101288001000200020128800C00028005D
:1057D00000128800000006004022AB00FEFF3A00E5
:1057E0001080FB004012880040A2AB00FEFF3A0090
:1057F0004012800080487800000006000400FA0093
:105800008001EB00E3BF9F00F3BF9F000000E000BA
:105810002A00320000027800170020001600200045
:105820000200E000200032004022AB00FEFF3A0000
:105830000000EB00800178000100E0000E00320063
:105840004022AB0004003A009482FB00451288001D
:10585000070242000000E80040A2AB0004003A004A
:105860004512800005497800060141008301E800E7
:10587000810F5000F2FF3900838F5000080036007E
:1058800040A2AB00FEFF3A004412800004497800B9
:10589000060141008301E800838F5000F8FF3E00BD
:1058A0000080FA0000000600648157000003EB004E
:1058B0004022AB00DCFF3A00DDFF37000F82E90039
:1058C00083037800160020000200E000D6FF3A00B3
:1058D000F5FF37004022AB00FEFF3A000080FB00DE
:1058E0004012880040A2AB00FEFF3A004012800048
:1058F00000000600C1FF3700001280000000060013
:10590000C422EF00CC22EF00D422EF00DC22EF0013
:10591000E422EF00EC22EF00F422EF0000602C0004
:10592000001688000080EB0040168800A1002700C8
:1059300081168800C0168800F13F200001178800FA
:10594000F113200041178800F13C200081178800E6
:105950005420EF005620EF005820EF005A20EF00AF
:105960005C20EF006C20EF006E20EF007020EF0055
:105970007220EF007420EF00C622EF00CE22EF006D
:10598000D622EF00DE22EF00E622EF00EE22EF004B
:10599000F622EF005019880060198800F00B2000F3
:1059A0004207B60061042000720520002374200025
:1059B000814978008249780080497800103A800057
:1059C0000060A0002374200081497800824978009B
:1059D0008049780000000600800020000011880047
:1059E0002222EF007A0040004011880021E2A80046
:1059F0002342A800000006002202AB00FEFF320096
:105A00002222AB00010032002222A90030118000C6
:105A1000000006002322AB00FEFF3A000080FB00DE
:105A20002011880000000600101180006140600015
:105A3000000006000040EB002322AB0004003A0007
:105A4000004020002202B6000000EA004F00DE0005
:105A500000000600101180004800DE006140600078
:105A600000000600101180000000060021E2A800DE
:105A70002342A8000000060021E2A9002342A90059
:105A80000000060000102300203A88004827EF009D
:105A90004E27EF007027EF007227EF007427EF000A
:105AA0007627EF007827EF007A27EF00A109200082
:105AB00032002000800720003374200080497800E5
:105AC0008149780082497800710520001200200089
:105AD0006004200023742000804978008149780008
